:0200000490006A
:10000000000008242986009011190090151900900D
:10001000191900901D19009021190090000000008E
:100020000000000000000000000000002519009002
:100030002919009000000000FD030090A5650090C4
:100040007986009079860090798600907986009074
:100050007986009079860090798600907986009064
:100060007986009079860090798600902D1900900D
:100070003D190090798600907986009079860090ED
:100080007986009079860090798600907986009034
:100090007986009079860090798600907986009024
:1000A0007986009079860090798600907986009014
:1000B0007986009079860090798600907986009004
:1000C00079860090798600907986009079860090F4
:1000D00079860090798600907986009079860090E4
:1000E0007986009079860090000000007986009063
:1000F00079860090798600907986009079860090C4
:1001000079860090798600907986009079860090B3
:100110004D1900907986009079860090798600903C
:100120007986009079860090798600907986009093
:100130007986009079860090798600907986009083
:1001400000000000000000000000000000000000AF
:100150007986009079860090798600907986009063
:100160007986009079860090798600907986009053
:100170007986009079860090798600907986009043
:100180007986009079860090798600907986009033
:100190007986009079860090798600907986009023
:1001A0007986009079860090798600907986009013
:1001B0007986009079860090798600907986009003
:1001C00079860090798600907986009079860090F3
:1001D00079860090798600907986009079860090E3
:1001E00079860090798600907986009079860090D3
:1001F00079860090798600907986009079860090C3
:1002000079860090798600907986009079860090B2
:1002100079860090798600907986009079860090A2
:100220007986009079860090798600900000000021
:100230007986009079860090000000007986009011
:100240007986009079860090798600907986009072
:100250007986009079860090798600907986009062
:100260007986009079860090798600907986009052
:1002700079860090798600907986009000000000D1
:1002800079860090798600907986009000000000C1
:080290000000000079860090D7
:1002C00010B5054C237833B9044B13B10448AFF390
:1002D00000800123237010BDC0090024000000002D
:1002E00058C10090084B10B51BB108490848AFF33E
:1002F00000800848036803B910BD074B002BFBD0F2
:10030000BDE81040184700BF00000000C4090024E9
:1003100058C10090C00900240000000072B6704768
:1003200062B67047EFF3108072B6704780F31088A2
:10033000704730BF704720BF7047B0FA80F07047F9
:1003400090FAA0F0B0FA80F0704790FAA0F07047F1
:10035000EFF3098121B120ED108A3C490A68106051
:100360007047B0EC108A3A490A681060704772B65C
:100370004EF62250CEF2000040F2FF01C0F2000122
:100380000170002080F3098841F28030C2F2004001
:10039000016881F3088806F0D5F842F22420C2F201
:1003A000004042F21D21C2F200410A78027042F27E
:1003B000D820C2F2004042F2E021C2F200410A68B5
:1003C0000260106880F30988EFF3148040F00200A7
:1003D00080F31488BFF36F8FBDE8F04F0FBCBDE80A
:1003E000005006BC62B608471A484FF080510160C1
:1003F000704718484FF080510160704772B6EFF3B4
:10040000098020E9F04F42F2D825C2F20045296860
:100410000860744606F096F842F22420C2F20040CA
:1004200042F21D21C2F200410A78027042F2E0213C
:10043000C2F200410A682A6044F0040E1068B0E875
:10044000F04F80F3098862B670470000D82200247C
:10045000E022002404ED00E00000000000000000A5
:1004600001F0FF01102A2BDB10F0070F08D010F865
:10047000013B013A8B422DD010F0070F42B3F6D169
:10048000F0B441EA012141EA014122F007047FF082
:1004900000070023F0E80256083C85EA010586EAD9
:1004A000010685FA47F5A3FA87F586FA47F6A5FA15
:1004B00087F68EB9EED1F0BC01F0FF0102F0070221
:1004C00032B110F8013B013A83EA010313B1F8D1CC
:1004D0000020704701387047002D06BF35460338AD
:1004E000073815F0010F07D1013015F4807F02BFE6
:1004F000013015F4C03F0130F0BC0138704700BF37
:10050000844641EA000313F003036DD1403A41D31E
:1005100051F8043B40F8043B51F8043B40F8043BDD
:1005200051F8043B40F8043B51F8043B40F8043BCD
:1005300051F8043B40F8043B51F8043B40F8043BBD
:1005400051F8043B40F8043B51F8043B40F8043BAD
:1005500051F8043B40F8043B51F8043B40F8043B9D
:1005600051F8043B40F8043B51F8043B40F8043B8D
:1005700051F8043B40F8043B51F8043B40F8043B7D
:1005800051F8043B40F8043B51F8043B40F8043B6D
:10059000403ABDD2303211D351F8043B40F8043B0D
:1005A00051F8043B40F8043B51F8043B40F8043B4D
:1005B00051F8043B40F8043B103AEDD20C3205D31D
:1005C00051F8043B40F8043B043AF9D2043208D015
:1005D000D2071CBF11F8013B00F8013B01D30B8887
:1005E00003806046704700BF082A13D38B078DD065
:1005F00010F003038AD0C3F10403D21ADB071CBF37
:1006000011F8013B00F8013B80D331F8023B20F8A0
:10061000023B7BE7043AD9D3013A11F8013B00F8D9
:10062000013BF9D20B7803704B7843708B78837061
:10063000604670470000000000000000000000005D
:1006400090F800F06DE9024520F007016FF0000C12
:1006500010F0070491F820F040F049804FF00004BA
:100660006FF00700D1E9002391F840F000F1080095
:1006700082FA4CF2A4FA8CF283FA4CF3A2FA8CF3CD
:100680004BBBD1E9022382FA4CF200F10800A4FA34
:100690008CF283FA4CF3A2FA8CF3E3B9D1E9042388
:1006A00082FA4CF200F10800A4FA8CF283FA4CF3BF
:1006B000A2FA8CF37BB9D1E9062301F1200182FA79
:1006C0004CF200F10800A4FA8CF283FA4CF3A2FA7F
:1006D0008CF3002BC6D0002A04BF04301A4612BA8D
:1006E000B2FA82F2FDE8024500EBD2007047D1E990
:1006F000002304F00305C4F100004FEAC50514F01F
:10070000040F91F840F00CFA05F562EA05021CBFEF
:1007100063EA050362464FF00004A9E753B94AB9FA
:10072000002908BF00281CBF4FF0FF314FF0FF30F9
:1007300001F0ECB8ADF1080C6DE904CE00F006F85C
:10074000DDF804E0DDE9022304B070472DE9F0474D
:100750008C460E460446089D002B50D18A4217460F
:100760006CD9B2FA82FEBEF1000F0BD0CEF120049C
:1007700020FA04F401FA0EF644EA060C02FA0EF727
:1007800000FA0EF44FEA1749220CBCFBF9F01FFAED
:1007900087F809FB10C642EA064600FB08F3B3429D
:1007A00009D9F61900F1FF3280F02281B34240F2FC
:1007B0001F8102383E44F61AA2B2B6FBF9F309FBD8
:1007C000136642EA064403FB08F8A04509D9E41978
:1007D00003F1FF3280F00A81A04540F20781023B1D
:1007E0003C44C8EB040443EA00400021002D62D0E1
:1007F00024FA0EF400232C606B60BDE8F0878B4276
:1008000007D9002D55D0002185E841000846BDE8F4
:10081000F087B3FA83F1002940F09080B34202D30D
:10082000824200F2F880841A66EB03060120B44687
:10083000002D40D085E81010BDE8F08712B90127DF
:10084000B7FBF2F7B7FA87FEBEF1000F35D1F31B05
:100850004FEA17481FFA87FC0121B3FBF8F0220C7E
:1008600008FB103642EA06460CFB00F3B34207D9F8
:10087000F61900F1FF3202D2B34200F2CE801046E8
:10088000F61AA2B2B6FBF8F308FB136642EA064476
:100890000CFB03FCA44507D9E41903F1FF3202D293
:1008A000A44500F2B5801346CCEB040443EA0040B3
:1008B0009CE729462846BDE8F087CEF1200106FADC
:1008C0000EF307FA0EF720FA01F94FEA1748CE4067
:1008D00049EA0309B6FBF8FA4FEA194408FB1A661D
:1008E0001FFA87FC44EA06430AFB0CF29A4200FA1C
:1008F0000EF40AD9DB190AF1FF3180F087809A42A1
:1009000040F28480AAF1020A3B449B1A1FFA89F93B
:10091000B3FBF8F108FB113349EA034301FB0CF682
:100920009E4207D9DB1901F1FF326BD29E4269D991
:1009300002393B449B1B41EA0A418EE7C1F1200E7C
:1009400022FA0EF48B40234320FA0EF706FA01F444
:100950004FEA134C26FA0EF63C43B6FBFCF9270C83
:100960000CFB19661FFA83F847EA064609FB08F7ED
:10097000B74202FA01F200FA01FA08D9F61809F1B1
:10098000FF3041D2B7423FD9A9F102091E44F61BFC
:10099000A0B2B6FBFCF40CFB146640EA064704FB6D
:1009A00008F8B84507D9FF1804F1FF3028D2B84538
:1009B00026D9023C1F4444EA0940C8EB0707A0FBC4
:1009C00002894F4544464E4614D329D065B3BAEB4D
:1009D000040367EB060707FA0EFECB40CF404EEA52
:1009E000030385E888000021BDE8F0871346F8E698
:1009F0001046E0E6B8EB020469EB03060138E5E7D0
:100A00000446D8E7114695E78146C0E78A467CE769
:100A1000023B3C4448E708460AE702383E442FE7D9
:100A2000C245E7D33E46D1E72946BDE8F08700BF7F
:100A300003685A004CBF43F0004323F000431844BE
:100A4000704700BF61B32DE9F84F01F1FF3A9046BE
:100A50000646D146002707EB090404EBD474641062
:100A6000E50071190846FFF7E3FFA245834605F14B
:100A70000800304409D0FFF7DBFFC34500F1FF3029
:100A800005D8404509D2671CE5E7C34505D9A7420B
:100A900002D004F1FF39DEE700210846BDE8F88FF7
:100AA00008467047012807D0022807D0044B0028C9
:100AB0000CBF184600207047024870470248704734
:100AC000B1110090B5110090B911009030B5244BD0
:100AD00083B004468D1E7BB301A92846AFF3008086
:100AE00020B301992A46FFF7ADFF0146F0B1FFF7A9
:100AF0009FFF4B68A064012B12D0002B01F1040072
:100B000020DBFFF795FF0023E06423650368002BDB
:100B10001CDBFFF78DFF00232061184603B030BDBA
:100B2000002323610523184603B030BD0023236151
:100B30000923184603B030BD0A490B48091AC910E9
:100B40000191CFE70123E0642365DFE7C3F303608E
:100B5000FFF7A8FF0028206114BF00230923DCE76A
:100B60000000000074C6009054C500900368DA07C6
:100B700010B5044606D49B0700F1480009D500F0E3
:100B800059FC2368590709D51A070ED5DB0613D57A
:100B900010BD00F047FC23685907F5D404F1D000DC
:100BA00000F050FC23681A07F0D404F5A87000F098
:100BB00051FC2368DB06EBD404F5E870BDE8104077
:100BC00000F08CBC03680BB118447047184670479E
:100BD00009207047704700BF70B504460D4608E015
:100BE0002B6C63612A462369214601209847082817
:100BF00008D1296C2046FFF769FF06460028EFD090
:100C00000BF048FA0728FBD13046296CFFF7E2FFCA
:100C1000281D00F0FBFB00BF2DE9F0470C1D064628
:100C200017460FCCADF5727D03AD0FC50FCC0FC5C8
:100C30000FCC0FC594E80F0002ACD6F80C80D6F8A4
:100C4000189085E80F0000233046216C2360FFF7E1
:100C50003DFF002F054614BF0A2709277DB1A36B6E
:100C600047F010018DE810023246636401203346DC
:100C7000C04778BB28460DF5727DBDE8F087236C30
:100C800073614FF4F07221467AA8FFF739FC33699B
:100C90007AAA314638469847889B82468DE81002EA
:100CA00039466364324633460120C04790B94FF459
:100CB000F0727AA92046FFF723FCBAF1080F06D19B
:100CC000216C3046FFF702FF09270546C6E7BAF157
:100CD000070F04D009200DF5727DBDE8F087284686
:100CE000216CFFF777FF03A800F090FB406C704782
:100CF000F0B5CB6B0B640E1D0F4604460FCEF9B05A
:100D000001AD0FC50FCE0FC50FCE0FC596E80F0072
:100D10004FF0FF3685E80F00009606E023696A462B
:100D2000214698470828054608D110992046FFF724
:100D3000CDFE0028F2D0092079B0F0BD6846FFF75B
:100D400015FF062DF7D139462046FFF745FF00BFB6
:100D500030B4DD6BC160826119461D64002230BC75
:100D60005AE700BF70B5C66843690B6426B101221B
:100D7000FFF752FF0BF08EF903690A4604460D4651
:100D8000014602209847072807D0082803D12946A2
:100D90002046FFF721FF0BF07DF93046296CFFF765
:100DA00019FF281D00F032FBC2681AB1CA6B0A6431
:100DB000002231E79CE700BF704700BF836813B192
:100DC000014601201847704700B5042907D8DFE81D
:100DD00001F00309060909000BB90F2A05D9022001
:100DE0005DF804FB01205DF804FB00EB820218466D
:100DF0005368019A13605DF804FB00BF10B584B01E
:100E0000002303AC0A4600941946FFF7DDFF039860
:100E100004B010BD00B5042907D8DFE801F00309CC
:100E2000060909000BB90F2A05D902205DF804FB59
:100E300001205DF804FB019900EB82020968516012
:100E400018465DF804FB00BF10B584B004AC002365
:100E500044F8042D0A4600941946FFF7DBFF04B05E
:100E600010BD00BFF0B5D36B1364151D07460E46C9
:100E70000FCDADF50F7D17AC0FC40FCD0FC40FCD47
:100E80000FC495E80F004FF0FF3584E80F0016956A
:100E900010E016A8FFF7D8FF314616A8B84716AAE3
:100EA000694678B9049B08209847052804460AD06B
:100EB000092807D026996846FFF708FE6A460C21E4
:100EC0000028E6D0092416A8FFF750FE20460DF5AD
:100ED0000F7DF0BD2DE9F04F0D46C96C8BB00C1D98
:100EE000096807919146089400F0030B1E46002BF9
:100EF00064D10902032307918DF825608DF8243011
:100F00002B6DBBF1020F08BFAC6B13F0010343D193
:100F100000F00800C2B2039201932768002F3DD071
:100F2000022E47D02788B4F802800434AB6C28F036
:100F3000010A0F2148469A44FFF760FF824537D8DF
:100F400027F001039A4450452CBF002001204FEAAE
:100F5000480808F0020807F0010748EA0708B8F156
:100F6000010F41D038D3B8F1020F1DD1236823F00F
:100F700000420292BBF1000F79D130B103990029F0
:100F800000F08180002A00F0A880002B79DB029B12
:100F9000013304EB8304C0E700230193022E40DDFC
:100FA000FFF716FE002842D009200BB0BDE8F08FF5
:100FB0000020CCE7D4F804800834B7E7022B9FDC8C
:100FC0000B0CDAB209048DF82530022304EB8204FD
:100FD00007918DF8243093E7BBF1000F02D0002871
:100FE00040F0B080043498E7BBF1000F26D1B0B1D7
:100FF00094E80C00991C4FEAD272D5D005F1580143
:101000000133069100F09480201DFFF7DBFD06AB55
:1010100001462846AFF30080002840F0B88008342D
:101020007BE707A9484600F0F3FA0028BCD1019BF2
:10103000002B5CD108200BB0BDE8F08F0D21484695
:101040002F6AFFF7DBFE8742E9D1AB6A9C42E6D10B
:101050002046FFF7EDFC0F2102464846FFF7F4FE5D
:1010600048462A460021FFF7EFFE07209DE70D21A5
:1010700048462F6AFFF7C2FE874248D02368002BFC
:1010800085DA043483E7029B3BB305F15803271D3F
:10109000CDF810B0DDF80C80DDF808A00596A34669
:1010A0001C4602E0B245B04616D038460694FFF71B
:1010B00089FD06AB014600222846AFF3008008F107
:1010C000010604370028EDD0029B059E43455C468F
:1010D000DDF810B0D2D100E05C4648460D21FFF7A4
:1010E0008DFE069B2862AC626B6206205DE70F21D5
:1010F0004846FFF783FE0E2102464846FFF7A4FE4E
:1011000048462A4A0F21FFF79FFE07204DE7AB6AAA
:101110009C42B3D104220027A3180299A962EF626E
:101120002A636B632368BB421FDB012301932EE715
:1011300048460D21FFF762FE2862069B6B62AC6297
:10114000062032E72046FFF773FC04340646AC6302
:101150002846AFF3008000283FF426AF48463246C9
:101160000F21FFF771FE07201FE70846013004EB4F
:101170008000FFF75DFC0F2102464846FFF764FE42
:1011800048462A463946FFF75FFE07200DE7074627
:101190000D214846FFF732FE022F2862CDD12B46A3
:1011A000069A43F82C2F6B62C9E700BF00000000CD
:1011B00000238FE601238DE602238BE6F0B504467B
:1011C000C5B004290DD8DFE801F057030C310F003A
:1011D000012B4FEA124695B266D17219102A40F2DD
:1011E0009F80022045B0F0BD002BFAD1102AF8D81C
:1011F0002368D80600F1C98022AE3046019200F083
:1012000077F9A06B019A0023012505FA03F1114239
:1012100003D0016846F8231004300133042BF4D1C5
:10122000A063304600F05AF90020DBE7032BD8D149
:10123000150C97B2EB19102BD3D823681E0700F1B9
:10124000B88022AE30467F0000F026F906EBC502DA
:101250007B1EA56B57B1043A294651F8040B42F89E
:10126000040F013B581CF8D105EB87053046A563F8
:1012700000F0F0F80020B5E7002BB2D1A56B97B2D3
:10128000201D012606FA03F1394203F1010302D0C1
:10129000296801600435102B00F10400F2D112F42A
:1012A00000503BD1A5639DE7052B9AD17719202FDC
:1012B00097D80F2E65D92F46002D48D12A460027F2
:1012C000002AA06B71DD00EBC202014644A800EBCE
:1012D000C6008C3851F8045B40F8045F9142F9D1A4
:1012E000084697B1102E324644A938BF102201EBB0
:1012F000C202A2F5C4727900043A00EB810150F8F1
:10130000045B42F8045F8142F9D1012B47D00F2ED4
:10131000A16332D917B102A800F094F8002061E768
:101320000F2E3FF65EAF00272268D1070DD522F0C1
:101330000101052B21600193204652D022F00302C7
:1013400040F8482B00F072F8019B002F51D0226822
:10135000510736D4012B3ED00F2E06D822A8019378
:1013600000F06CF8019B002FA8D002A8019300F0B8
:101370006DF8019BC6F11002A2E722A800F05AF80E
:10138000C8E7102FCFD9103FCEE723F0100323601A
:1013900004F5E870019200F0ABF8019A2CE70431F3
:1013A000A16322A800F03EF8B8E7002F9AD10146C9
:1013B000ABE723F00803236004F5A87000F06CF895
:1013C0003FE7204622F0040240F8D02B019300F0C2
:1013D0003DF8019BBEE722A8019300F027F8019B8E
:1013E000C8E741F0020140F8481B00F027F8019BD4
:1013F000ABE7012B03D00F2E3FF660AFAEE722A87C
:10140000019300F013F8019B58E700BF00F134018D
:1014100091E838009C46A6464CF8045D90E8FF0F22
:10142000E54600BD90EC210B704700BF80EC210B1E
:10143000704700BF90EC200B704700BF80EC200B82
:10144000704700BFD0EC200B704700BFC0EC200BF2
:10145000704700BFF0EC0201F0EC0211F0EC022149
:10146000F0EC0231F0EC0241F0EC0251F0EC0261E0
:10147000F0EC0271F0EC0281F0EC0291F0EC02A1D0
:10148000F0EC02B1F0EC02C1F0EC02D1F0EC02E1C0
:10149000F0EC02F1704700BFE0EC0201E0EC021159
:1014A000E0EC0221E0EC0231E0EC0241E0EC025120
:1014B000E0EC0261E0EC0271E0EC0281E0EC029110
:1014C000E0EC02A1E0EC02B1E0EC02C1E0EC02D100
:1014D000E0EC02E1E0EC02F1704700BFB0FC0181FA
:1014E000B0FC0191B0FC01A1B0FC01B1704700BF9C
:1014F000A0FC0181A0FC0191A0FC01A1A0FC01B114
:10150000704700BFEC4600B52DE900502DE9FF1FE4
:101510004FF000032DE90C0001A9FFF7E9FBDDF80E
:1015200040E012B0704700BFEC4600B52DE9005016
:101530002DE9FF1F4FF000032DE90C0001A9FFF773
:1015400011FCDDF840E012B0704700BFEC4600B57A
:101550002DE900502DE9FF1F4FF000032DE90C008D
:1015600001A9FFF721FCDDF840E012B0704700BF91
:10157000EC4600B52DE900502DE9FF1F4FF00003A8
:101580002DE90C0001ABFFF7E3FBDDF840E012B002
:10159000704700BFEC4600B52DE900502DE9FF1F54
:1015A0004FF000032DE90C0001AAFFF75BFCDDF80A
:1015B00040E012B0704700BF037A1BB9437A43B9C9
:1015C000B02070475A1E036802721A020260180E99
:1015D00070474268013B10B4437213680321141D25
:1015E00001721A02446002605DF8044B180E7047E5
:1015F00000B585B003AA0023009219460C22FFF71C
:10160000E3FB039805B05DF804FB00BFF0E700BF03
:101610002DE9F043064685B00D464FF000082846F8
:10162000FFF7CAFFB028044600F0B48020F07F0323
:1016300013F0FF0320D000F0F003802B7AD0902B22
:1016400035D0A02B48D0B02B5CD0C02B00F08980C7
:1016500000F0F803D02B0BD100F00702013242F466
:101660000022052301213046FFF7A8FD0028D6D02F
:10167000092005B0BDE8F0830DF10C09194687007B
:10168000CDF800900D223046FFF79EFBFFB2039B82
:10169000CDF80090043760064CBFDF1BFF18002315
:1016A00019460D2230460397FFF7B4FBB7E700F069
:1016B0000D030D2BDCD003AF002300F00F02194601
:1016C00000973046FFF780FB0023009719460D2254
:1016D0003046FFF79FFBA2E7C2434FF47F6302F05F
:1016E000070243FA02F2010702EA03024FF0000385
:1016F00048BF42F4804219463046FFF75FFD00289C
:10170000B6D18CE7B1284AD0B22853D0B32800F024
:10171000818000F0FC03B42BAAD000F00702013254
:10172000012342F4002219463046FFF747FD002806
:101730009ED174E72846FFF73FFF24022043B0F50F
:10174000004F95D004010023A2B219463046FFF79E
:1017500035FD00288CD114F4004F18BF4FF001085C
:101760005DE7C62862D0C7286CD000F0F803C02B14
:101770007BD0C82800F09180C9287FF479AF284633
:10178000FFF71AFF020300F00F0002F4702201308D
:10179000024366E7B8F1000F6ED0002069E72846E3
:1017A000FFF70AFF024600283FF462AF10F0F00393
:1017B000B9D05DE700230DF10C090D221946CDF8D3
:1017C00000903046FFF700FB2846FFF7F5FE0206C3
:1017D0004FF002040CD5039B00F07F00A0400344AF
:1017E00028460393FFF7E8FE030604F10704F2D44A
:1017F000039BCDF8009000F07F0000FA04F203F59F
:1018000001740023144419460D2230460394FFF757
:1018100001FB04E72846FFF7CFFE010300F00F00AD
:1018200001F47021421C01230A437CE72846FFF79C
:10183000C3FE010300F00F0001F47021421C0323DA
:101840000A4370E72846FFF7B7FE024600283FF438
:101850000FAF10F0F0037FF40BAF04213046FFF719
:10186000ADFC00287FF404AFD9E600F00F0201328E
:10187000032342F4202256E703AC43460E2241469E
:1018800000943046FFF7A0FA0094304643460F22FA
:101890004146FFF7BFFA4046EBE62846FFF78CFECD
:1018A00000F0F00200F00F031032013343EA02327D
:1018B000D7E600BF10B5C36C84B05A6803208DF81A
:1018C0000C00DC798DF80D4012020833084601A99E
:1018D00001920293FFF79CFE04B010BD08B5FFF71C
:1018E00095FE806C08BD00BF08B5FFF78FFEC36C86
:1018F000D87903EB8000083008BD00BF08B50AF0B6
:10190000C9FB00BF08B5FFF7F9FF00BF704700BF74
:10191000FEE700BFFEE700BFFEE700BFFEE700BF37
:10192000FEE700BF704700BF704700BF08B5024820
:1019300002F074FF08BD00BF0412002408B502487D
:1019400002F06CFF08BD00BF0813002408B5274B48
:101950001B68DA6912F0100F3ED010221A62244B75
:101960001B68244A2449934218BF8B422AD018325C
:10197000934227D01832934224D01832934221D078
:10198000183293421ED0183293421BD01832934221
:1019900018D002F55672934214D01832934211D0E7
:1019A000183293420ED0183293420BD01832934221
:1019B00008D01832934205D01832934202D0183220
:1019C000934203D15B68C3F1800302E05B68C3F11B
:1019D00080030A4A136005E0DA6912F0400F01D073
:1019E00040221A62014803F063FE08BD7C12002405
:1019F000041200242800024010000240DC090024E8
:101A000082B0074BD3F8F42042F00202C3F8F4206E
:101A1000D3F8F43003F002030193019B02B0704746
:101A200000440258064AD36823F4E0631B041B0CED
:101A3000000200F4E0601843024B0343D360704798
:101A400000ED00E00000FA0530B4144BDB68C3F38E
:101A50000223C3F10704042C28BF04241D1D062DF6
:101A600001D9DD1E00E00025012303FA04F4013C46
:101A70002140A940AB40013B1A400A43002804DB47
:101A80001201D2B2064B1A5405E000F00F00120109
:101A9000D2B2044B1A5430BC704700BF00ED00E0D6
:101AA00000E400E014ED00E0002808DB420900F04B
:101AB0001F00012303FA00F0014B43F82200704796
:101AC00000E100E00138B0F1807F0AD2064B586097
:101AD000F021064A82F823100020986007221A603D
:101AE00070470120704700BF10E000E000ED00E00B
:101AF000002800F0058338B50446036813F0010F91
:101B000061D0AC4A136903F03803926A102B05D0F8
:101B1000182B0CD102F00302022A08D1A54B1B6836
:101B200013F4003F4FD06368002B4CD1EAE26368A6
:101B3000B3F5803F05D19F4A136843F480331360A7
:101B400020E04BB99B4B1A6822F480321A601A6865
:101B500022F480221A6015E0B3F5A02F09D1954B2D
:101B60001A6842F480221A601A6842F480321A60BD
:101B700008E0904B1A6822F480321A601A6822F446
:101B800080221A6063687BB103F0C4FA054605E061
:101B900003F0C0FA401B642800F2B682854B1B6834
:101BA00013F4003FF4D00EE003F0B4FA054605E06C
:101BB00003F0B0FA401B642800F2A8827D4B1B683A
:101BC00013F4003FF4D1236813F0020F00F0848077
:101BD000784A1369926A13F0380304D0182B2DD178
:101BE00012F0030F2AD1734B1B6813F0040F03D0BC
:101BF000E368002B00F08C8203F092FA41F20303B9
:101C0000984212D82269402A07D16A4A536823F4BD
:101C10007C3343F4003353605EE066494B6823F441
:101C20007C3343EA02334B6056E0624A536823F048
:101C3000FE43216943EA016353604DE0E268002AF4
:101C400036D05C490B6823F0190313430B6003F093
:101C500061FA054605E003F05DFA401B022800F238
:101C60005982544B1B6813F0040FF4D003F058FA58
:101C700041F20303984212D82269402A07D14D4A03
:101C8000536823F47C3343F40033536024E0494920
:101C90004B6823F47C3343EA02334B601CE0454A33
:101CA000536823F0FE43216943EA0163536013E064
:101CB000404A136823F00103136003F02BFA054632
:101CC00005E003F027FA401B022800F22582394B79
:101CD0001B6813F0040FF4D1236813F0100F00F009
:101CE0008880344A136903F03803926A082B05D0C0
:101CF000182B2ED102F00302012A2AD12D4B1B688A
:101D000013F4807F03D0E369802B40F0078203F057
:101D100007FA41F20303984212D8226A202A07D117
:101D2000244A536823F0F84343F08043536060E053
:101D300020494B6823F0F84343EA82634B6058E044
:101D40001C4AD36823F07C53216A43EA0163D360C1
:101D50004FE0E369002B38D0164A136843F0800344
:101D6000136003F0D7F9054605E003F0D3F9401BF3
:101D7000022800F2D5810F4B1B6813F4807FF4D04A
:101D800003F0CEF941F20303984215D8226A202AC3
:101D900007D1084A536823F0F84343F08043536067
:101DA00027E004494B6823F0F84343EA82634B6021
:101DB0001FE000BF00440258AE4AD36823F07C53B2
:101DC000216A43EA0163D36013E0AA4A136823F04F
:101DD0008003136003F09EF9054605E003F09AF9CD
:101DE000401B022800F29E81A24B1B6813F4807FE7
:101DF000F4D1236813F0080F2AD06369A3B19D4A78
:101E0000536F43F00103536703F084F9054605E07F
:101E100003F080F9401B022800F28681954B5B6F2E
:101E200013F0020FF4D013E0924A536F23F0010332
:101E3000536703F06FF9054605E003F06BF9401BAB
:101E4000022800F273818B4B5B6F13F0020FF4D109
:101E5000236813F0200F2AD0A369A3B1854A136821
:101E600043F48053136003F055F9054605E003F091
:101E700051F9401B022800F25B817E4B1B6813F472
:101E8000005FF4D013E07B4A136823F4805313609F
:101E900003F040F9054605E003F03CF9401B022839
:101EA00000F24881734B1B6813F4005FF4D1236880
:101EB00013F0040F61D0704A136843F48073136009
:101EC00003F028F9054605E003F024F9401B6428D7
:101ED00000F23281684B1B6813F4807FF4D0A36852
:101EE000012B05D1634A136F43F0010313671FE011
:101EF0004BB9604B1A6F22F001021A671A6F22F079
:101F000004021A6714E0052B09D15A4B1A6F42F0EC
:101F100004021A671A6F42F001021A6708E0554B73
:101F20001A6F22F001021A671A6F22F004021A6770
:101F3000A3688BB103F0EEF8054607E003F0EAF87A
:101F4000401B41F28833984200F2F880494B1B6FE6
:101F500013F0020FF2D010E003F0DCF8054607E0C2
:101F600003F0D8F8401B41F28833984200F2E88031
:101F7000404B1B6F13F0020FF2D1636A002B00F08D
:101F8000E1803C4A126902F03802182A00F08F8082
:101F9000022B77D1374A136823F08073136003F064
:101FA000B9F8054605E003F0B5F8401B022800F239
:101FB000CB80304B1B6813F0007FF4D12D4B9A6A15
:101FC0002E491140A26AE06A42EA00120A439A626C
:101FD000226B511EC1F30801626B013A520292B2A8
:101FE0001143A26B013A120402F4FE021143E26BA8
:101FF000013A120602F0FE420A431A63DA6A22F03C
:102000000102DA62596B1E4A0A40A16C42EAC1021F
:102010005A63DA6A22F00C01226C0A43DA62DA6A45
:1020200022F00201626C0A43DA62DA6A42F4803218
:10203000DA62DA6A42F40032DA62DA6A42F4802260
:10204000DA62DA6A42F00102DA621A6842F08072F9
:102050001A6003F05FF8044604E003F05BF8001B2D
:10206000022873D8034B1B6813F0007FF5D00020C3
:1020700038BD00BF00440258004802580CFCFFFF66
:102080000700FFFF3A4A136823F08073136003F0E0
:1020900041F8044604E003F03DF8001B022857D83D
:1020A000334B1B6813F0007FF5D1002038BD304A58
:1020B000916A106B012B4DD001F00303A26A934289
:1020C0004AD1C1F30511E36A994247D1C0F308022E
:1020D000236B013B9A4243D1C0F34622636B013B21
:1020E0009A423FD1C0F30642A36B013B9A423BD1D7
:1020F000C0F30660E36B013B984237D0012038BD46
:1021000001207047012038BD032038BD032038BDB1
:10211000012038BD032038BD032038BD012038BD63
:10212000032038BD032038BD032038BD032038BD4F
:10213000032038BD032038BD032038BD032038BD3F
:10214000032038BD002038BD032038BD032038BD32
:10215000032038BD012038BD012038BD012038BD25
:10216000012038BD012038BD012038BD002038BD18
:1021700000440258754B1B6903F03803102B00F024
:10218000DC80182B10D00BB1714870476F4B1B6867
:1021900013F0200F00F0D3806C4B1868C0F3C1001F
:1021A0006C4B23FA00F0704710B46849886A00F05D
:1021B00003008A6AC2F30512CB6A03F001044B6B79
:1021C000C3F3CC0303FB04F307EE903AF8EE677A0F
:1021D000002A00F0B680012849D010B1022863D04F
:1021E0007FE05A4B1B6813F0200F23D05748036839
:1021F000C3F3C101574BCB4007EE103AF8EE476AE4
:1022000007EE102AB8EE476A86EE867A036BC3F3B0
:10221000080306EE903AF8EE666A9FED4F6A67EEA5
:10222000867A76EEA77AF7EE006A77EEA66A67EE10
:10223000266A72E007EE102AF8EE476A9FED476AB9
:1022400086EE267A414B1B6BC3F3080306EE903AE9
:10225000F8EE666A9FED406A67EE867A76EEA77AB8
:10226000F7EE006A77EEA66A67EE266A55E007EE9B
:10227000102AF8EE476A9FED3A6A86EE267A334BCB
:102280001B6BC3F3080306EE903AF8EE666A9FED07
:10229000326A67EE867A76EEA77AF7EE006A77EE14
:1022A000A66A67EE266A38E007EE102AF8EE476A5B
:1022B0009FED2C6A86EE267A244B1B6BC3F3080332
:1022C00006EE903AF8EE666A9FED236A67EE867A2C
:1022D00076EEA77AF7EE006A77EEA66A67EE266AD0
:1022E0001BE007EE102AB8EE477ADFED1D6A86EE96
:1022F000876A164B1B6BC3F3080306EE903AF8EEA1
:10230000666A9FED157A67EE877A76EEA77AF7EE22
:10231000006A77EEA66A66EE266A0C4B1B6BC3F367
:102320004623013307EE903AB8EE677AC6EE877A15
:10233000FCEEE77A17EE900A04E00B487047054878
:10234000704700205DF8044B704700BF00440258FE
:1023500000093D000090D003000000390024744CB7
:102360000024744A20BCBE4B40787D01002800F058
:102370002F8170B504469E4B1B6803F00F038B4200
:102380000BD29B4A136823F00F030B4313601368AF
:1023900003F00F03994240F01D81236813F0040FEE
:1023A0000CD02269934B9B6903F070039A4205D9C4
:1023B0009048836923F0700313438361236813F00B
:1023C000080F0CD062698B4BDB6903F070039A42F3
:1023D00005D98848C36923F070031343C361236898
:1023E00013F0100F0CD0A269824BDB6903F4E06399
:1023F0009A4205D97F48C36923F4E0631343C3615C
:10240000236813F0200F0CD0E2697A4B1B6A03F0AB
:1024100070039A4205D97748036A23F07003134387
:102420000362236813F0020F0CD0E268714B9B69C2
:1024300003F00F039A4205D96E48836923F00F0316
:10244000134383610D46236813F0010F3ED06949A1
:102450008B6923F47062A36813438B616368022B5A
:1024600004D10A6812F4003F16D1B5E0032B05D160
:10247000604A126812F0007F0ED1AFE0012B05D147
:102480005C4A126812F4807F06D1A9E0594A1268AA
:1024900012F0040F00F0A68056490A6922F00702E4
:1024A00013430B6102F036FE064607E002F032FEEF
:1024B000801B41F28833984200F296804D4B1B6995
:1024C00003F038036268B3EBC20FEFD1236813F057
:1024D000020F0CD0E268474B9B6903F00F039A424E
:1024E00005D244498B6923F00F0313438B61404BA2
:1024F0001B6803F00F039D420AD23D4A136823F084
:102500000F032B431360136803F00F039D426DD13B
:10251000236813F0040F0CD02269364B9B6903F03B
:1025200070039A4205D233498B6923F07003134339
:102530008B61236813F0080F0CD062692D4BDB69A7
:1025400003F070039A4205D22A49CB6923F0700345
:102550001343CB61236813F0100F0CD0A269254BF5
:10256000DB6903F4E0639A4205D22249CB6923F484
:10257000E0631343CB61236813F0200F0CD0E269B2
:102580001C4B1B6A03F070039A4205D219490B6A6F
:1025900023F0700313430B62FFF7ECFD15498B69C1
:1025A000C3F30323144AD35C03F01F03D8408B69A1
:1025B00003F00F03D35C03F01F0320FA03F30F4A69
:1025C00013600F4B18600F4B186802F04DFD70BD83
:1025D00001207047012070BD012070BD012070BD39
:1025E000012070BD012070BD032070BD012070BDB1
:1025F000002000520044025888C100900C000024C2
:10260000100000240400002408B5FFF7B3FD0B4AB6
:102610009369C3F303230A49CB5C03F01F0320FA39
:1026200003F3926902F00F02885C00F01F0023FAA6
:1026300000F0044A1060044A136008BD00440258C8
:1026400088C100900C0000241000002408B5FFF79A
:10265000DBFF054BDB69C3F30213044AD35C03F0D1
:102660001F03D84008BD00BF0044025888C1009035
:1026700008B5FFF7C9FF054BDB69C3F30223044A22
:10268000D35C03F01F03D84008BD00BF00440258CC
:1026900088C10090424B9B6A03F00303032B79D05F
:1026A00070B50E4605463E4A136823F080631360FA
:1026B00002F030FD044604E002F02CFD001B02286D
:1026C0006AD8374B1B6813F0006FF5D1344B9A6A08
:1026D00022F47C32296842EA01329A626A68511E09
:1026E000C1F30801A868421E520292B241EA0200F8
:1026F000E9680139090401F4FE0240EA02012A698D
:10270000013A120602F0FE420A439A63DA6A22F0A4
:10271000C0016A690A43DA62DA6A22F02001AA6912
:102720000A43DA62DA6A22F01002DA62D96B1D4AD1
:102730000A40E96942EAC102DA63DA6A42F0100249
:10274000DA622EB91A46DB6A43F40023D3620CE046
:10275000012E05D1124AD36A43F48013D36204E0F8
:102760000F4AD36A43F40013D3620D4A136843F04F
:102770008063136002F0CEFC044604E002F0CAFC61
:10278000001B02280AD8064B1B6813F0006FF5D017
:10279000002070BD01207047032070BD032070BD74
:1027A000004402580700FFFF424B9B6A03F00303FB
:1027B000032B79D070B50E4605463E4A136823F0C8
:1027C0008053136002F0A6FC044604E002F0A2FC71
:1027D000001B02286AD8374B1B6813F0005FF5D145
:1027E000344B9A6A22F07C72296842EA01529A625A
:1027F0006A68511EC1F30801A868421E520292B2D3
:1028000041EA0200E9680139090401F4FE0240EAE4
:1028100002012A69013A120602F0FE420A431A64D2
:10282000DA6A22F440616A690A43DA62DA6A22F4F7
:102830000071AA690A43DA62DA6A22F48072DA6203
:10284000596C1D4A0A40E96942EAC1025A64DA6ACF
:1028500042F48072DA622EB91A46DB6A43F48003CE
:10286000D3620CE0012E05D1124AD36A43F400036F
:10287000D36204E00F4AD36A43F08073D3620D4AF7
:10288000136843F08053136002F044FC044604E0F4
:1028900002F040FC001B02280AD8064B1B6813F00C
:1028A000005FF5D0002070BD01207047032070BD8F
:1028B000032070BD004402580700FFFFF8B504462E
:1028C000036813F0006F2CD0436EB3F5801F11D056
:1028D00001D843B11AE0B3F5001F11D0B3F5401F82
:1028E00014D1002513E09F4AD36A43F40033D36226
:1028F00000250CE002210430FFF7CCFE054606E07F
:1029000002212430FFF750FF054600E001255DB9A4
:1029100094490B6D23F44012636E13430B652E46EE
:1029200003E00026354600E02E46236813F4807F3E
:1029300025D0636D042B17D8DFE803F003090F17C8
:102940001700884AD36A43F40033D3620DE00021B4
:10295000201DFFF79FFE054607E0002104F124003B
:10296000FFF722FF054600E001253DB97D490B6DCB
:1029700023F00702636D13430B6500E02E462368C6
:1029800013F4007F2BD0A36D802B16D003D843B156
:10299000402B0CD018E0C02B17D0B3F5807F14D09B
:1029A00012E0704AD36A43F40033D3620DE0002191
:1029B000201DFFF76FFE054607E0002104F124000B
:1029C000FFF7F2FE054600E001253DB965490B6DB4
:1029D00023F4E072A36D13430B6500E02E462368D9
:1029E00013F4806F30D0D4F8A430B3F5800F18D032
:1029F00004D853B1B3F5001F0DD019E0B3F5C00FE3
:102A000017D0B3F5000F14D012E0564AD36A43F43E
:102A10000033D3620DE00021201DFFF73BFE054689
:102A200007E0002104F12400FFF7BEFE054600E0A8
:102A3000012545B94B498B6D23F46002D4F8A430CD
:102A400013438B6500E02E46236813F4006F30D0EB
:102A5000D4F8A830B3F1007F18D004D853B1B3F143
:102A6000807F0DD019E0B3F1407F17D0B3F1806FB4
:102A700014D012E03B4AD36A43F40033D3620DE032
:102A80000021201DFFF706FE054607E0002104F1A6
:102A90002400FFF789FE054600E0012545B93149CC
:102AA0008B6D23F0E062D4F8A83013438B6500E00F
:102AB0002E46236813F0007F21D0A36C102B07D083
:102AC00001D893B110E0202B08D0302B0DD00BE0B3
:102AD000244AD36A43F40033D36206E00221201D66
:102AE000FFF7D8FD054600E001253DB91D49CB6C37
:102AF00023F03002A36C1343CB6400E02E4623681E
:102B000013F4805F31D0E36DB3F5005F18D004D8C3
:102B100053B1B3F5805F0DD019E0B3F5405F17D026
:102B2000B3F5804F14D012E00E4AD36A43F4003359
:102B3000D3620DE00021201DFFF7ACFD054607E044
:102B4000002104F12400FFF72FFE054600E00125D7
:102B500055B904490B6D23F4E042E36D13430B6553
:102B600003E000BF004402582E46236813F4005FC0
:102B70002BD0236EB3F5003F15D004D8DBB1B3F5ED
:102B8000803F0AD016E0B3F5802F14D0B3F5A02F04
:102B900011D0B3F5403F0DD10DE00121201DFFF70D
:102BA00079FD054607E0012104F12400FFF7FCFD53
:102BB000054600E001253DB98F490B6D23F4E02265
:102BC000236E13430B6500E02E46236813F4804FF9
:102BD0002DD0D4F8AC30B3F1005F15D004D8DBB100
:102BE000B3F1805F0AD016E0B3F1804F14D0B3F197
:102BF000A04F11D0B3F1405F0DD10DE00121201D98
:102C0000FFF748FD054607E0012104F12400FFF726
:102C1000CBFD054600E0012545B977498B6D23F0D2
:102C2000E042D4F8AC3013438B6500E02E462368B5
:102C300013F4004F1FD0E36EB3F1805F04D0B3F103
:102C4000005F07D063B90CE06B4AD36A43F40033EA
:102C5000D36206E00121201DFFF71CFD054600E0C0
:102C600001253DB964490B6D23F04052E36E1343D7
:102C70000B6500E02E46236813F0807F1DD0636C47
:102C8000032B0FD8DFE803F00F02080F5A4AD36A6C
:102C900043F40033D36206E00221201DFFF7FAFC63
:102CA000054600E001253DB95349CB6C23F00302F2
:102CB000636C1343CB6400E02E46236813F4800F4B
:102CC00065D04E4A136843F48073136002F022FA11
:102CD000074604E002F01EFAC01B642805D8474BE3
:102CE0001B6813F4807FF5D000E00325002D4BD145
:102CF000414B1A6FD4F8B030534013F4407F0CD0DE
:102D00003D4B1A6F22F44072196F41F480311967FC
:102D1000196F21F4803119671A67D4F8B030B3F510
:102D2000807F11D102F0F6F9074606E002F0F2F9D1
:102D3000C01B41F28833984205D82F4B1B6F13F00C
:102D4000020FF3D000E0032505BBD4F8B03003F444
:102D50004072B2F5407F09D12748016921F47C51C6
:102D6000274A02EA13130B43036104E0224A136962
:102D700023F47C531361204A116FD4F8B030C3F3AD
:102D80000B030B43136702E02E4600E02E46236838
:102D900013F0010F37D0A36F282B23D8DFE803F0FF
:102DA000232222222222222215222222222222220F
:102DB0001B222222222222222322222222222222F9
:102DC000232222222222222223000121201DFFF77A
:102DD00061FC054607E0012104F12400FFF7E4FC53
:102DE000054600E001256DB903494B6D23F038021B
:102DF000A36F13434B6506E0004402580048025895
:102E0000CFFFFF002E46236813F0020F1FD0636F21
:102E1000052B11D8DFE803F011030911111101216D
:102E2000201DFFF737FC054607E0012104F12400CF
:102E3000FFF7BAFC054600E001253DB9AC494B6DF2
:102E400023F00702636F13434B6500E02E462368AF
:102E500013F0040F21D0D4F89030052B11D8DFE8FF
:102E600003F01103091111110121201DFFF712FCBC
:102E7000054607E0012104F12400FFF795FC054613
:102E800000E0012545B99A498B6D23F00702D4F87B
:102E9000903013438B6500E02E46236813F0200F1B
:102EA0002DD0D4F88C30B3F1005F15D004D8DBB14D
:102EB000B3F1805F0AD016E0B3F1804F14D0B3F1C4
:102EC000A04F11D0B3F1405F0DD10DE00021201DC6
:102ED000FFF7E0FB054607E0022104F12400FFF7BD
:102EE00063FC054600E0012545B981494B6D23F09F
:102EF000E042D4F88C3013434B6500E02E46236843
:102F000013F0400F2DD0D4F89830B3F5006F15D0E2
:102F100004D8DBB1B3F5806F0AD016E0B3F5805F5B
:102F200014D0B3F5A05F11D0B3F5406F0DD10DE013
:102F30000021201DFFF7AEFB054607E0022104F14A
:102F40002400FFF731FC054600E0012545B968493A
:102F50008B6D23F4E052D4F8983013438B6500E076
:102F60002E46236813F0800F2DD0D4F89C30B3F593
:102F7000804F15D004D8DBB1B3F5005F0AD016E05E
:102F8000B3F5004F14D0B3F5204F11D0B3F5C04FB7
:102F90000DD10DE00021201DFFF77CFB054607E069
:102FA000022104F12400FFF7FFFB054600E00125A4
:102FB00045B94F498B6D23F46042D4F89C301343DC
:102FC0008B6500E02E46236813F0080F13D0D4F869
:102FD0008030B3F5805F06D1022104F12400FFF7B1
:102FE000E3FB00B1012642494B6D23F44052D4F873
:102FF000803013434B65236813F0100F13D0D4F8BF
:103000009430B3F5807F06D1022104F12400FFF74C
:10301000CBFB00B1012636498B6D23F44072D4F806
:10302000943013438B65236813F4002F21D0D4F818
:10303000A030B3F5803F09D0B3F5003F0ED063B99F
:103040000021201DFFF726FB054607E0022104F1C1
:103050002400FFF7A9FB054600E0012545B92449F6
:103060008B6D23F44032D4F8A03013438B6500E01D
:103070002E46236813F4802F23D0D4F88430B3F580
:10308000001F0BD0B3F5401F10D0B3F5801F0CD13B
:10309000174AD36A43F40033D36207E0012104F1F5
:1030A0002400FFF781FB054600E0012545B91049E2
:1030B0004B6D23F44012D4F8843013434B6500E089
:1030C0002E46236813F4803F1FD0E36C1BB1B3F589
:1030D000803F06D00EE0064AD36A43F40033D36241
:1030E00009E00221201DFFF7D5FA054603E000BFE5
:1030F0000044025801253DB93A49CB6C23F4803293
:10310000E36C1343CB6400E02E46236813F0005FAA
:1031100006D0022104F12400FFF746FB00B101268E
:10312000236813F4003F1ED0E36FB3F5807F09D00E
:1031300001D86BB90DE0B3F5007F0AD0B3F5407F3D
:1031400006D106E0274AD36A43F40033D36200E095
:1031500001253DB923494B6D23F44072E36F1343BE
:103160004B6500E02E46236813F4801F06D01D49EE
:103170000B6D23F00042236F13430B65236813F09C
:10318000805F07D017490B6923F48042D4F8B4302C
:1031900013430B61236813F4001F06D011490B6D14
:1031A00023F08072A36E13430B65236813F0804FE6
:1031B00009D00C4B1A6922F400421A611969D4F83B
:1031C000B8200A431A612368002B06DA0549CB6C44
:1031D00023F04052236D1343CB640EB90020F8BD99
:1031E0000120F8BD0044025808B5FFF70DFA054B61
:1031F0001B6AC3F30213044AD35C03F01F03D840D5
:1032000008BD00BF0044025888C1009030B477491F
:103210008C6A8A6AC2F30532CB6AC3F30015CB6BA2
:10322000C3F3CC0303FB05F3002A00F0D98004F0BC
:10323000030407EE903AF8EE677A012C49D014B1F6
:10324000022C63D07FE0694B1B6813F0200F23D062
:10325000664C2368C3F3C101654BCB4007EE103ABF
:10326000F8EE476A07EE102AB8EE476A86EE867ACD
:10327000A36BC3F3080306EE903AF8EE666A9FED7F
:103280005D6A67EE867A76EEA77AF7EE006A77EEE9
:10329000A67A67EE277A72E007EE102AF8EE476A00
:1032A0009FED556A86EE267A504B9B6BC3F308035D
:1032B00006EE903AF8EE666A9FED4E6A67EE867A01
:1032C00076EEA77AF7EE006A77EEA67A67EE277AAF
:1032D00055E007EE102AF8EE476A9FED486A86EE41
:1032E000267A424B9B6BC3F3080306EE903AF8EE46
:1032F000666A9FED406A67EE867A76EEA77AF7EE09
:10330000006A77EEA67A67EE277A38E007EE102A91
:10331000F8EE476A9FED3A6A86EE267A334B9B6B4E
:10332000C3F3080306EE903AF8EE666A9FED316A41
:1033300067EE867A76EEA77AF7EE006A77EEA67ADF
:1033400067EE277A1BE007EE102AF8EE476A9FED3A
:103350002B6A86EE267A254B9B6BC3F3080306EE99
:10336000903AF8EE666A9FED236A67EE867A76EE0B
:10337000A77AF7EE006A77EEA67A67EE277A1B4AFD
:10338000936BC3F3462306EE903AF8EE666AB7EE07
:10339000006A76EE866A87EEA67ABCEEC77A80ED82
:1033A000007A936BC3F3064306EE903AF8EE666A32
:1033B00076EE866A87EEA67ABCEEC77A80ED017A51
:1033C000936BC3F3066307EE103AB8EE477A37EE15
:1033D000067AC7EE876AFCEEE66AC0ED026A03E091
:1033E000002303604360836030BC70470044025890
:1033F0000090D003000000390024744C0024744A6B
:1034000020BCBE4B30B477498C6A8A6AC2F305523D
:10341000CB6AC3F300254B6CC3F3CC0303FB05F36A
:10342000002A00F0D98004F0030407EE903AF8EE89
:10343000677A012C49D014B1022C63D07FE0694B2C
:103440001B6813F0200F23D0664C2368C3F3C1011F
:10345000654BCB4007EE103AF8EE476A07EE102AAC
:10346000B8EE476A86EE867A236CC3F3080306EE4D
:10347000903AF8EE666A9FED5D6A67EE867A76EEC0
:10348000A77AF7EE006A77EEA67A67EE277A72E0FF
:1034900007EE102AF8EE476A9FED556A86EE267A07
:1034A000504B1B6CC3F3080306EE903AF8EE666AC5
:1034B0009FED4E6A67EE867A76EEA77AF7EE006A9F
:1034C00077EEA67A67EE277A55E007EE102AF8EE37
:1034D000476A9FED486A86EE267A424B1B6CC3F31F
:1034E000080306EE903AF8EE666A9FED406A67EED2
:1034F000867A76EEA77AF7EE006A77EEA67A67EE1E
:10350000277A38E007EE102AF8EE476A9FED3A6A0C
:1035100086EE267A334B1B6CC3F3080306EE903A13
:10352000F8EE666A9FED316A67EE867A76EEA77AE4
:10353000F7EE006A77EEA67A67EE277A1BE007EED1
:10354000102AF8EE476A9FED2B6A86EE267A254B05
:103550001B6CC3F3080306EE903AF8EE666A9FED23
:10356000236A67EE867A76EEA77AF7EE006A77EE40
:10357000A67A67EE277A1B4A136CC3F3462306EE3E
:10358000903AF8EE666AB7EE006A76EE866A87EEE3
:10359000A67ABCEEC77A80ED007A136CC3F30643BB
:1035A00006EE903AF8EE666A76EE866A87EEA67ABE
:1035B000BCEEC77A80ED017A136CC3F3066307EEA5
:1035C000103AB8EE477A37EE067AC7EE876AFCEE15
:1035D000E66AC0ED026A03E0002303604360836093
:1035E00030BC7047004402580090D00300000039FE
:1035F0000024744C0024744A20BCBE4B2DE9F041D9
:1036000082B00023E4E001249C40224000F0DF80EF
:103610004D686E1E112D18BF012E01D9122D15D126
:1036200087684FEA430E032606FA0EF627EA0606D7
:10363000CD6805FA0EF535438560456825EA040432
:103640004D68C5F300159D402C434460C5685F007C
:103650000324BC40E44305EA040E8D68BD404EEAF5
:103660000505C5604D68122D18BF022D13D1DE0867
:10367000083650F8268003F007054FEA850E0F251F
:1036800005FA0EF528EA050C0D6905FA0EF54CEA67
:10369000050540F82650056804EA05064C6804F064
:1036A000030505FA07F4344304604C6814F0805FA6
:1036B00000F08D804A4CD4F8F45045F00205C4F86F
:1036C000F450D4F8F44004F002040194019C9E08E4
:1036D000B51C444C54F8257003F00304A4000F25D6
:1036E000A54027EA0507404DA84225D005F580658D
:1036F000A84223D005F58065A84221D005F5806554
:10370000A8421FD005F58065A8421DD005F580654B
:10371000A8421BD005F58065A84219D005F5806543
:10372000A84217D005F58065A84215D005F580653B
:10373000A84213D1092512E0002510E001250EE072
:1037400002250CE003250AE0042508E0052506E033
:10375000062504E0072502E0082500E00A2505FA11
:1037600004F43C4302361F4D45F826401F4C2568A3
:10377000D44305EA04064F6817F4803F01D042EABB
:1037800005061A4D2E606E6804EA06054F6817F4A8
:10379000003F01D042EA0605144E75604FF0B04577
:1037A0002D6804EA05064F6817F4801F01D042EA2D
:1037B00005064FF0B0452E606D682C404E6816F43B
:1037C000001F01D042EA05044FF0B04254600133BB
:1037D0000A6832FA03F47FF416AF02B0BDE8F08154
:1037E00000440258000400580000025880000058AD
:1037F0000AB181617047090481617047436931EA08
:10380000030302D10904816170478161704700BFE1
:10381000F0B5876D0468944D944EAC4218BFB44225
:1038200044D01835AC4243D01835AC4242D018359C
:10383000AC4241D01835AC4240D01835AC423FD0F4
:103840001835AC423ED005F55675AC423CD0183523
:10385000AC423BD01835AC423AD01835AC4239D0E6
:103860001835AC4238D01835AC4237D01835AC4298
:1038700036D01835AC4235D07D4DAC4234D01435FD
:10388000AC4233D01435AC4232D01435AC4231D0D6
:103890001435AC4230D01435AC422FD01435AC4284
:1038A0002ED01435AC422DD101242CE001242AE085
:1038B000012428E0012426E0012424E0012422E060
:1038C000012420E001241EE001241CE001241AE070
:1038D000012418E0012416E0012414E0012412E080
:1038E000012410E001240EE001240CE001240AE090
:1038F000012408E0012406E0012404E0012402E0A0
:10390000012400E000243CB1446E856E6560C46E05
:1039100014B1046F456F65600468534D534EAC425B
:1039200018BFB4422CD01835AC422BD01835AC425D
:103930002AD01835AC4229D01835AC4228D01835D9
:10394000AC4227D01835AC4226D005F55675AC42AE
:1039500024D01835AC4223D01835AC4222D01835CB
:10396000AC4221D01835AC4220D01835AC421FD023
:103970001835AC421ED01835AC421DD101251CE0D3
:1039800001251AE0012518E0012516E0012514E0C3
:10399000012512E0012510E001250EE001250CE0D3
:1039A00001250AE0012508E0012506E0012504E0E3
:1039B000012502E0012500E00025CDB1C46D04F031
:1039C0001F053F24AC40BC6005682C6824F48024AB
:1039D0002C60046863608368402B04D103689A609C
:1039E0000368D960F0BD036899600368DA60F0BDD0
:1039F000204EDFF87CE0B44218BF744513D0143673
:103A0000B44212D01436B44211D01436B44210D09D
:103A10001436B4420FD01436B4420ED01436B44229
:103A20000CD101250AE0012508E0012506E0012569
:103A300004E0012502E0012500E001259DB1C46DEF
:103A400004F01F050124AC407C6004686360836857
:103A5000402B04D103689A600368D960F0BD036805
:103A600099600368DA60F0BD28000240100002404F
:103A7000085402581C5402580368384A3849934283
:103A800018BF8B422CD0183293422BD0183293425D
:103A90002AD01832934229D01832934228D01832B3
:103AA000934227D01832934226D002F556729342A1
:103AB00024D01832934223D01832934222D01832A5
:103AC000934221D01832934220D0183293421FD013
:103AD000183293421ED0183293421DD101221CE0AD
:103AE00001221AE0012218E0012216E0012214E06E
:103AF000012212E0012210E001220EE001220CE07E
:103B000001220AE0012208E0012206E0012204E08D
:103B1000012202E0012200E00022B2B110B4DAB2C8
:103B2000103A1049A1FB0212120902F007010E4CD3
:103B3000615CC165032A04D90C4A1A4004328265CB
:103B400008E00A4A1A40826504E023F0FF03836517
:103B5000806D7047806D5DF8044B7047280002400F
:103B600010000240ABAAAAAA80C1009000FCFFFF8F
:103B700083698BB9836A012B08D00BB1022B30D13A
:103B8000C36A13F0807F2ED100207047C36AB3F15F
:103B9000C07F2AD000207047B3F5005F14D1836A3C
:103BA000032B03D8DFE803F02304230A0020704727
:103BB000C36A13F0807F1CD100207047C36AB3F141
:103BC000C07F18D000207047836A022B15D9032BC1
:103BD00001D000207047C36A13F0807F0FD100200E
:103BE0007047002070470120704701207047012076
:103BF0007047012070470120704701207047012065
:103C0000704700BF0368294A2949934218BF8B4275
:103C100013D01432934212D01432934211D0143282
:103C2000934210D0143293420FD0143293420ED0EC
:103C3000143293420DD101220CE001220AE001224C
:103C400008E0012206E0012204E0012202E0012254
:103C500000E0002292B1DBB2083B164AA2FB03232C
:103C60001B09154A1A4492000266144A426603F080
:103C70001F03012202FA03F383667047DAB2103A97
:103C80000F49A1FB021212090E491944A82900D8B4
:103C900008320D4B13449B0003660C4B436602F045
:103CA0001F02012303FA02F2826670471C54025875
:103CB00008540258CDCCCCCC00960016805802583F
:103CC000ABAAAAAAF0FBFDBF008200108008024048
:103CD00001794A1E072A3BD830B403681D4C1E4D9B
:103CE000A34218BFAB4213D01434A34212D01434F1
:103CF000A34211D01434A34210D01434A3420FD0E5
:103D00001434A3420ED01434A3420DD101230CE08D
:103D100001230AE0012308E0012306E0012304E077
:103D2000012302E0012300E0002333B10B4B0B44DD
:103D30009B00C3660A4B036705E00A4B0B449B00DC
:103D4000C366094B0367012303FA02F2426730BCE2
:103D5000704700BF1C540258085402583F96001682
:103D6000405902583F8200104009024070B5044695
:103D700001F0D0F9002C00F0208205462368B049FC
:103D8000B04A934218BF8B420CBF012200222CD0B4
:103D900030318B422BD018318B422AD018318B42D4
:103DA00029D018318B4228D018318B4227D01831B6
:103DB0008B4226D001F556718B4224D018318B42AC
:103DC00023D018318B4222D018318B4221D01831A8
:103DD0008B4220D018318B421FD018318B421ED01D
:103DE00018318B421DD101211CE001211AE0012173
:103DF00018E0012116E0012114E0012112E0012167
:103E000010E001210EE001210CE001210AE0012176
:103E100008E0012106E0012104E0012102E0012186
:103E200000E00021002900F0A980002184F834106E
:103E3000022184F8351052BB834A934227D01832AE
:103E4000934224D01832934221D0183293421ED08C
:103E5000183293421BD01832934218D002F5567292
:103E6000934214D01832934211D0183293420ED09C
:103E7000183293420BD01832934208D01832934232
:103E800005D01832934202D01832934204D11A68F6
:103E900022F001021A6010E01A6822F001021A6092
:103EA0000BE001F037F9401B052806D92023636594
:103EB000032384F83530012070BD23681A6812F09E
:103EC000010FEED11A6861481040A168E268114301
:103ED0002269114362691143A2691143E2690A43ED
:103EE000216A114340EA0102616A042903D1E06AB0
:103EF000216B01430A435649086856490140B1F114
:103F0000005F19D36168A1F12905A1F13F000328E1
:103F100088BF052D08D9A1F14700012806D94F39DE
:103F2000032905D8012104E0012102E0012100E07C
:103F3000002109B142F480121A602668756925F0E3
:103F40000705636A1D43042B0DD1A36A1D43E36A71
:103F50004BB12046FFF70CFE28B1402363650120DA
:103F600084F8350070BD75612046FFF785FDE36D6F
:103F700003F01F023F23934083607EE0364A3748B8
:103F8000934218BF834213D01432934212D014329A
:103F9000934211D01432934210D0143293420FD076
:103FA000143293420ED0143293420CD101210AE014
:103FB000012108E0012106E0012104E0012102E0E5
:103FC000012100E00121002950D0002284F8342092
:103FD000022284F835201A6821481040A268402A3D
:103FE00004D0802A04D14FF4804102E0102100E087
:103FF0000021E26841EAD201226941EAD201626904
:1040000041EAD201A26941EAD201E26941EAD20160
:10401000226A41EA121202431A602268114B1344C9
:10402000114AA2FB03231B099B00E3652046FFF70F
:1040300023FDE36D03F01F020123934043601CE066
:104040001000024028000240400002403F8010FE65
:104050000010005C0000FFFF1C5402580854025876
:104060000F00FEFFF8ABFDA7CDCCCCCC40236365A1
:10407000032384F83530012070BD2368504A51492C
:10408000934218BF8B4244D01832934243D0183227
:10409000934242D01832934241D01832934240D0DA
:1040A000183293423FD0183293423ED002F55672F6
:1040B00093423CD0183293423BD0183293423AD0CC
:1040C0001832934239D01832934238D01832934282
:1040D00037D01832934236D01832934235D03A4A0C
:1040E000934234D01432934233D01432934232D0BC
:1040F0001432934231D01432934230D0143293426E
:104100002FD0143293422ED0143293422DD101235A
:104110002CE001232AE0012328E0012326E00123EB
:1041200024E0012322E0012320E001231EE00123FB
:104130001CE001231AE0012318E0012316E001230B
:1041400014E0012312E0012310E001230EE001231B
:104150000CE001230AE0012308E0012306E001232B
:1041600004E0012302E0012300E00023FBB120462C
:10417000FFF748FDA368802B01D100236360236E05
:1041800022791A60636EA26E5A606368013B072B46
:1041900009D82046FFF79CFDE36E00221A60236FCA
:1041A000626F5A6003E00023E366236763670020C1
:1041B0006065012384F8353070BD012070BD00BFFB
:1041C000280002401000024008540258002800F065
:1041D000968170B5044690F83400012800F0918172
:1041E000012084F8340094F83500C0B2012840F072
:1041F0007E81022084F83500002060652068914DA2
:10420000914EA84218BFB0422AD01835A84227D0F4
:104210001835A84224D01835A84221D01835A84214
:104220001ED01835A8421BD01835A84218D005F565
:104230005675A84214D01835A84211D01835A84296
:104240000ED01835A8420BD01835A84208D0183522
:10425000A84205D01835A84202D01835A84204D18A
:10426000056825F00105056003E0056825F00105F6
:1042700005602046FFF7CCFA2368724A72499342E0
:1042800018BF8B422CD0183293422BD01832934255
:104290002AD01832934229D01832934228D01832AB
:1042A000934227D01832934226D002F55672934299
:1042B00024D01832934223D01832934222D018329D
:1042C000934221D01832934220D0183293421FD00B
:1042D000183293421ED0183293421DD101221CE0A5
:1042E00001221AE0012218E0012216E0012214E066
:1042F000012212E0012210E001220EE001220CE076
:1043000001220AE0012208E0012206E0012204E085
:10431000012202E0012200E000226AB11A6822F0C4
:104320001E0242F016021A60236C93B122681368D1
:1043300043F0080313600CE01A6822F00E0242F00A
:104340000A021A60236C23B12268136843F0040345
:10435000136023683B4A3C49934218BF8B4244D0C8
:104360001832934243D01832934242D018329342CB
:1043700041D01832934240D0183293423FD0183285
:1043800093423ED002F5567293423CD0183293428B
:104390003BD0183293423AD01832934239D0183277
:1043A000934238D01832934237D01832934236D0E5
:1043B0001832934235D0254A934234D01432934276
:1043C00033D01432934232D01432934231D014326B
:1043D000934230D0143293422FD0143293422ED0D5
:1043E0001432934234D1012333E0012331E001231D
:1043F0002FE001232DE001232BE0012329E00123FD
:1044000027E0012325E0012323E0012321E001230C
:104410001FE001231DE001231BE0012319E001231C
:1044200017E0012315E0012313E0012311E001232C
:104430000FE001230DE001230BE0012309E001233C
:1044400007E000BF28000240100002400854025854
:10445000002373B1236E1A6812F4803F03D01A68E8
:1044600042F480721A60E36E1BB11A6842F48072E3
:104470001A602368244A2549934218BF8B422AD0E8
:104480001832934227D01832934224D018329342E4
:1044900021D0183293421ED0183293421BD01832CA
:1044A000934218D002F55672934214D018329342B8
:1044B00011D0183293420ED0183293420BD01832DA
:1044C000934208D01832934205D01832934202D05A
:1044D0001832934205D11A6842F001021A60002096
:1044E00070BD1A6842F001021A60002070BD0023FE
:1044F00084F834304FF400636365012070BD0120FF
:104500007047022070BD00BF28000240100002402A
:10451000002800F07F81034690F83520D2B2022AAD
:1045200003D080224265012070470268A248A34957
:104530008A4218BF82420CBF012100212CD03030AA
:1045400082422BD0183082422AD01830824229D0A1
:104550001830824228D01830824227D01830824248
:1045600026D000F55670824224D01830824223D0E3
:104570001830824222D01830824221D01830824234
:1045800020D0183082421FD0183082421ED01830FE
:1045900082421DD101201CE001201AE0012018E018
:1045A000012016E0012014E0012012E0012010E0BB
:1045B00001200EE001200CE001200AE0012008E0CB
:1045C000012006E0012004E0012002E0012000E0DB
:1045D000002000283AD0042083F8350051BB784BE6
:1045E0009A4227D018339A4224D018339A4221D0C5
:1045F00018339A421ED018339A421BD018339A426D
:1046000018D003F556739A4214D018339A4211D039
:1046100018339A420ED018339A420BD018339A426C
:1046200008D018339A4205D018339A4202D0183372
:104630009A4205D1136823F00103136000207047EC
:10464000136823F0010313600020704710B5116850
:1046500021F00E0111601A685849574C8A4218BF60
:10466000A2422AD018318A4227D018318A4224D057
:1046700018318A4221D018318A421ED018318A421C
:104680001BD018318A4218D001F556718A4214D0D5
:1046900018318A4211D018318A420ED018318A421C
:1046A0000BD018318A4208D018318A4205D018310F
:1046B0008A4202D018318A4204D1116821F00101E6
:1046C000116003E0116821F0010111601A683B4993
:1046D000394C8A4218BFA24244D018318A4243D092
:1046E00018318A4242D018318A4241D018318A4268
:1046F00040D018318A423FD018318A423ED001F56D
:1047000056718A423CD018318A423BD018318A42D5
:104710003AD018318A4239D018318A4238D018310B
:104720008A4237D018318A4236D018318A4235D081
:1047300024498A4234D014318A4233D014318A4217
:1047400032D014318A4231D014318A4230D01431FF
:104750008A422FD014318A4236D014318A4234D161
:10476000012032E0012030E001202EE001202CE089
:1047700001202AE0012028E0012026E0012024E099
:10478000012022E0012020E001201EE001201CE0A9
:1047900001201AE0012018E0012016E0012014E0B9
:1047A000012012E0012010E001200EE001200CE0C9
:1047B00001200AE0012008E0100002402800024029
:1047C00040000240085402580120B8B1196E0A682E
:1047D00022F480720A60986DDA6D02F01F010122E6
:1047E0008A4042605A6E996E5160DA6E32B1116839
:1047F00021F4807111601A6F596F5160002283F8A3
:104800003420012283F835201A6D2AB118469047CA
:10481000002010BD01207047002010BDF0B583B00E
:104820000446002301939A4B1B689A4DA5FB033560
:10483000AD0A866D3768306823689749974A934276
:1048400018BF8B420CBF012200222CD030318B428A
:104850002BD018318B422AD018318B4229D01831F5
:104860008B4228D018318B4227D018318B4226D06A
:1048700001F556718B4224D018318B4223D0183168
:104880008B4222D018318B4221D018318B4220D05C
:1048900018318B421FD018318B421ED018318B42F9
:1048A0001DD101211CE001211AE0012118E00121A4
:1048B00016E0012114E0012112E0012110E00121A4
:1048C0000EE001210CE001210AE0012108E00121B4
:1048D00006E0012104E0012102E0012100E00021C5
:1048E000002900F04782E16D01F01F00082181409E
:1048F0000F4241D052BB6A4A934227D018329342AA
:1049000024D01832934221D0183293421ED018324C
:1049100093421BD01832934218D002F5567293423C
:1049200014D01832934211D0183293420ED018325C
:1049300093420BD01832934208D01832934205D0DC
:104940001832934202D01832934203D11A68C2F34C
:10495000800202E01A68C2F3C0026AB11A6822F04B
:1049600004021A60E36D03F01F0208239340B36052
:10497000636D43F001036365E26D02F01F0227FAE5
:1049800002F313F0010F42D02368434843498B429E
:1049900018BF83420CBF012100212AD0303083424E
:1049A00027D01830834224D01830834221D01830C9
:1049B00083421ED0183083421BD01830834218D057
:1049C00000F55670834214D01830834211D018304D
:1049D00083420ED0183083420BD01830834208D067
:1049E0001830834205D01830834202D018308342F9
:1049F00003D15969C1F3C01100E01B6839B101232B
:104A000003FA02F2B260636D43F002036365E26D84
:104A100002F01F02042303FA02F2174249D023686E
:104A20001D481E498B4218BF83420CBF0121002143
:104A30002AD03030834227D01830834224D0183017
:104A4000834221D0183083421ED0183083421BD0BD
:104A50001830834218D000F55670834214D01830B5
:104A6000834211D0183083420ED0183083420BD0CD
:104A70001830834208D01830834205D01830834262
:104A800002D0183083420DD11968C1F340010AE009
:104A900010000024B5814E1B100002402800024087
:104AA000400002401B6821B1B260636D43F0040313
:104AB0006365E36D03F01F03102202FA03F31F4244
:104AC00059D02068A94AAA49904218BF88422AD0E2
:104AD0001832904227D01832904224D01832904297
:104AE00021D0183290421ED0183290421BD018327A
:104AF000904218D002F55672904214D0183290426B
:104B000011D0183290420ED0183290420BD0183289
:104B1000904208D01832904205D01832904202D00C
:104B20001832904203D10268C2F3C00202E0026868
:104B3000C2F38002FAB1B36023681A6812F4802FBE
:104B40000DD01B6813F4002F04D1236C9BB12046B9
:104B5000984710E0A36C73B1204698470BE01A68A1
:104B600012F4807F03D11A6822F008021A60236CC5
:104B70000BB120469847E36D03F01F03202202FA91
:104B800003F31F4200F08C802068784A78499042F5
:104B900018BF88422AD01832904227D0183290424B
:104BA00024D01832904221D0183290421ED01832B0
:104BB00090421BD01832904218D002F556729042A3
:104BC00014D01832904211D0183290420ED01832C0
:104BD00090420BD01832904208D01832904205D043
:104BE0001832904202D01832904203D10268C2F3C8
:104BF000001202E00268C2F34002002A50D0B36003
:104C000094F83530DBB2042B25D12268136823F0E9
:104C1000160313602268536923F080035361236CE9
:104C20000BB9A36C23B12268136823F00803136047
:104C3000E36D03F01F023F239340B360002384F829
:104C40003430012384F83530236D002B00F0D381FC
:104C500020469847CFE123681A6812F4802F0DD0C0
:104C60001B6813F4002F04D1636CCBB12046984726
:104C700016E0E36BA3B12046984711E01A6812F4DE
:104C8000807F09D11A6822F010021A60002384F88C
:104C90003430012384F83530E36B0BB1204698475C
:104CA000636D002B00F0A781636D13F0010F56D0E8
:104CB000042384F8353023682C4A2D49934218BFC9
:104CC0008B422AD01832934227D01832934224D0F4
:104CD0001832934221D0183293421ED01832934298
:104CE0001BD01832934218D002F55672934214D05A
:104CF0001832934211D0183293420ED01832934298
:104D00000BD01832934208D01832934205D0183293
:104D1000934202D01832934204D11A6822F0010261
:104D20001A6003E01A6822F001021A60019B013345
:104D300001939D4204D323681B6813F0010FF5D142
:104D4000002384F8343023681B6813F0010F03D06C
:104D5000032384F8353002E0012384F83530E36C16
:104D6000002B00F048812046984744E1280002408B
:104D700010000240A14DA24FAB4218BFBB4213D05E
:104D80001435AB4212D01435AB4211D01435AB42BE
:104D900010D01435AB420FD01435AB420ED01435C1
:104DA000AB420CD101210AE0012108E0012106E01B
:104DB000012104E0012102E0012100E0012100299C
:104DC00000F019811F68E16D01F01F0104258D407D
:104DD00028425CD017F0040F59D0756017F4004FCB
:104DE00010D017F4803F06D1A36C002B00F0038194
:104DF00020469847FFE0236C002B00F0FC80204603
:104E00009847F8E017F0200F3AD123687D4A7E4991
:104E1000934218BF8B422AD01832934227D01832BF
:104E2000934224D01832934221D0183293421ED09C
:104E3000183293421BD01832934218D002F55672A2
:104E4000934214D01832934211D0183293420ED0AC
:104E5000183293420BD01832934208D01832934242
:104E600005D01832934202D01832934204D11A6806
:104E700022F008021A6003E01A6822F004021A60A5
:104E8000236C002B00F0B78020469847B3E0022542
:104E90008D40284261D017F0020F5ED0756017F484
:104EA000004F10D017F4803F06D1636C002B00F048
:104EB000A280204698479EE0E36B002B00F09B8089
:104EC0002046984797E017F0200F40D123684D4ABD
:104ED0004D49934218BF8B422AD01832934227D0B3
:104EE0001832934224D01832934221D01832934280
:104EF0001ED0183293421BD01832934218D002F5BC
:104F00005672934214D01832934211D01832934201
:104F10000ED0183293420BD01832934208D0183278
:104F2000934205D01832934202D01832934204D1F2
:104F30001A6822F014021A6003E01A6822F00A02CA
:104F40001A60002384F83430012384F83530E36B91
:104F5000002B50D0204698474DE0082505FA01F176
:104F6000084248D017F0080F45D052BB274A934259
:104F700027D01832934224D01832934221D01832CD
:104F800093421ED0183293421BD01832934218D04D
:104F900002F55672934214D01832934211D018324F
:104FA00093420ED0183293420BD01832934208D05D
:104FB0001832934205D01832934202D018329342ED
:104FC00004D11A6822F01C021A6003E01A6822F069
:104FD0000E021A60E36D03F01F03012202FA03F3CD
:104FE00073606265002384F8343084F83520E36C04
:104FF0000BB12046984703B0F0BD00BF1C540258C7
:1050000008540258280002401000024040000240AC
:10501000144BDB6813F0040F07D1124BDB6803F06D
:105020000703834219D00120704710B50D4AD36899
:1050300023F007031843D06000F06CF8044605E045
:1050400000F068F8001BB0F57A7F08D8054B5B6864
:1050500013F4005FF4D0002010BD00207047012041
:1050600010BD00BF00480258104B1B78C3B110B5EB
:1050700004464FF47A70B0FBF3F30D4A1068B0FBAE
:10508000F3F0FCF71FFD68B90F2C0DD80022214664
:105090004FF0FF30FCF7D8FC064B1C60002010BD21
:1050A00001207047012010BD012010BD0800002420
:1050B000100000240400002410B50320FCF7B2FC0B
:1050C000FDF758F80F498B69C3F303230E4AD35CED
:1050D00003F01F03D8408B6903F00F03D35C03F088
:1050E0001F0320FA03F3094A1360094B18600F20CD
:1050F000FFF7BAFF18B90446FCF782FC00E0012470
:10510000204610BD0044025888C100900C000024C5
:1051100010000024014B1868704700BF00120024E3
:10512000014B1868000C70470010005C294AD2F847
:10513000883043F47003C2F88830274B1B6803F0B3
:105140000F03062B06D8244A136823F00F0343F0FD
:1051500007031360214B1A6842F001021A60002213
:105160001A6119681E4A0A401A601B4B1B6803F03B
:105170000F03072B06D9184A136823F00F0343F0D7
:1051800007031360154B00229A61DA611A62154910
:1051900099621549D962154919635A639963DA63AB
:1051A00019645A64196821F4802119601A66104B39
:1051B0001A68104B1340B3F1005F02D201220E4B6C
:1051C0001A6043F2D2020D4B1A604FF00062014B9D
:1051D0009A60704700ED00E0002000520044025841
:1051E0007FEDF6EA000202020000FF0180020101E9
:1051F0000010005C0000FFFF0881005100400052D9
:1052000030B589B00024039404940594069407945F
:105210001B4BD3F8E02042F01002C3F8E020D3F893
:10522000E02002F010020092009AD3F8E02042F051
:105230008002C3F8E020D3F8E02002F0800201925F
:10524000019AD3F8E02042F00102C3F8E020D3F83D
:10525000E03003F001030293029B0A4D224608212D
:105260002846FEF7C5FA0823039301230493059407
:10527000069403A92846FEF7C1F909B030BD00BF66
:10528000004402580010025800B583B00F4BD3F809
:10529000D82042F00102C3F8D820D3F8D83003F068
:1052A00001030193019B002201210B20FCF7CCFBA1
:1052B0000B20FCF7F9FB002202210C20FCF7C4FBB9
:1052C0000C20FCF7F1FB03B05DF804FB004402582E
:1052D00008B51648164B03604FF4E13343600023D2
:1052E0008360C36003610C2242618361C361036216
:1052F0004362836200F032FF08B102F0A1FE4FF07A
:1053000080410A4800F0BEFF08B102F099FE4FF05C
:105310008061064800F0DCFF08B102F091FE03480E
:1053200000F08CFF08B102F08BFE08BD7C12002457
:10533000004C004030B5B7B00446002131913291A5
:10534000339134913591BC2202A803F0CBF9226845
:105350005F4B9A4240F0B98036A8022340F8D03D16
:10536000FDF7ACFA08B102F06BFE5A4BD3F8E82017
:1053700042F40022C3F8E820D3F8E82002F4002227
:105380000092009AD3F8E02042F00102C3F8E02036
:10539000D3F8E03003F001030193019B0323319321
:1053A0000223329301233393002534950823359348
:1053B00031A94948FEF722F94848494B03603F2389
:1053C00043608560C5604FF480630361456185611A
:1053D0004FF48073C36105624562FEF7C7FC08B1F4
:1053E00002F02EFE3D4BA3679C633E483E4B03609C
:1053F0004023436083600023C3604FF480620261F6
:1054000043618361C36103620422426203228262B8
:10541000C3620363FEF7AAFC08B102F011FE314D2E
:105420006567AC63002203213420FCF70DFB3420B8
:10543000FCF73AFB2D480368102119621A680A43E9
:105440001A60036819621A6842F040021A602B68F9
:10545000254A01F1804101F50031934218BF8B428A
:105460002AD01832934227D01832934224D01832CF
:10547000934221D0183293421ED0183293421BD04F
:105480001832934218D002F55672934214D0183253
:10549000934211D0183293420ED0183293420BD05F
:1054A0001832934208D01832934205D018329342F2
:1054B00002D01832934204D11A6842F010021A60E6
:1054C00003E01A6842F002021A6037B030BD00BF34
:1054D000004C00400044025800000258041200240E
:1054E0001000024008130024280002407C1200240F
:1054F0000268136823F0C00313600268936823F402
:10550000000393602023C0F880307047026813685E
:1055100023F49073136002689168044B0B4093600E
:105520002023C0F884300023C3667047FEFFFFEFDE
:1055300010B5D0F88440202C47D1002A18BF00298C
:1055400045D090F87C30012B43D01346044601220D
:1055500080F87C208165A0F85C300022C0F88820AB
:105560002222C0F88420826FE2B11B49D163826F8E
:105570001A491164826F1A49D164826F0021116542
:105580000168826D2431806FFEF720FE50B1102338
:10559000C4F88830002384F87C302023C4F880309D
:1055A000012010BD002084F87C002268136843F4B9
:1055B000807313602268936843F00103936022684C
:1055C000936843F04003936010BD022010BD01209A
:1055D00010BD022010BD00BF095600904D5600902E
:1055E0005D560090704700BF08B501680A6822F058
:1055F00040020A602022C0F8802000220267FFF7E4
:10560000F1FF08BD704700BF08B5836BC269B2F5F2
:10561000807F14D00022A3F85E2019680A6822F463
:1056200080720A6019688A6822F001028A6019682B
:105630008A6822F040028A602022C3F8842018463B
:10564000FFF7E0FF08BD00BF704700BF08B5806BE3
:10565000FFF7FAFF08BD00BF704700BF38B5846B85
:10566000D4F88020D4F8845023689B6813F0800F0E
:1056700007D0212A05D10023A4F856302046FFF791
:1056800037FF23689B6813F0400F07D0222D05D108
:105690000023A4F85E302046FFF738FFD4F88830A6
:1056A00043F01003C4F888302046FFF7D5FF38BD1B
:1056B00070B504460168CB690D68886840F60F0232
:1056C0001A400FD113F0200F0CD015F0200F02D18B
:1056D00010F0805F06D0E36E002B00F0D1802046F2
:1056E000984770BD002A00F09480664A024003D1BA
:1056F000654E354200F08D8013F0010F09D015F48E
:10570000807F06D001260E62D4F888103143C4F899
:10571000881013F0020F0BD010F0010F08D0216891
:1057200002260E62D4F8881041F00401C4F88810F3
:1057300013F0040F0BD010F0010F08D021680426DD
:105740000E62D4F8881041F00201C4F8881013F0FA
:10575000080F0BD015F0200F00D13AB122680821B4
:105760001162D4F888200A43C4F8882013F4006F2B
:105770000CD015F0806F09D022684FF400611162DF
:10578000D4F8882042F02002C4F88820D4F8882079
:10579000002A75D013F0200F09D015F0200F02D188
:1057A00010F0805F03D0E36E0BB120469847D4F829
:1057B000882023689B6813F0400F02D112F0280F55
:1057C00020D02046FFF7A2FE23689A6812F0400F0F
:1057D00014D09A6822F040029A60A36F53B12B4A0A
:1057E0001A65A06FFEF794FE002849D0A06F036DE4
:1057F000984770BD2046FFF72FFF70BD2046FFF78A
:105800002BFF70BD2046FFF727FF0023C4F8883028
:1058100070BD13F4801F09D010F4800F06D04FF430
:1058200080130B62204600F003FD70BD13F0800F63
:105830000AD015F0800F02D110F4000F04D0236FAE
:10584000F3B12046984770BD13F0400F06D015F015
:10585000400F03D02046FFF7C7FE70BD13F4000FC2
:1058600006D015F0804F03D0204600F0E5FC70BD57
:1058700013F0807F04D0002D02DA204600F0DAFC1D
:1058800070BD00BF0100001020010004915800907D
:1058900008B5806B0023A0F85E30A0F85630FFF703
:1058A000DBFE08BD2DE9F04387B00446826803693A
:1058B0001A4343691A43C3691A43436E1A43016882
:1058C00008687C4B034013430B6021684B6823F44A
:1058D0004052E36813434B60A1692268764B9A42B9
:1058E00001D0236A19439068744B03400B439360C3
:1058F0002168CB6A23F00F02636A1343CB622368EB
:105900006F4A93423CD16F4A526D02F03802282A06
:1059100034D8DFE812F029003300330033003300BD
:1059200033003300330032013300330033003300DF
:105930003300330033002B003300330033003300D7
:105940003300330033002D003300330033003300C5
:105950003300330033002F003300330033003300B3
:105960003300330033003100012219E1082217E12E
:10597000102215E1202213E1402211E180220FE1E3
:10598000514A934219D14F4A526D02F00702052A3B
:1059900011D8DFE812F00600F40008000A000C003D
:1059A0000E000022FCE00822FAE01022F8E020229B
:1059B000F6E04022F4E08022F2E0444A934219D11A
:1059C000404A526D02F00702052A11D8DFE812F0B2
:1059D0000600D90008000A000C000E000022DFE0DB
:1059E0000822DDE01022DBE02022D9E04022D7E0CF
:1059F0008022D5E0364A934216D1324A526D02F0E7
:105A00000702052A0ED8DFE802F003BE0507090BDE
:105A10000022C5E00822C3E01022C1E02022BFE03E
:105A20004022BDE08022BBE02A4A934216D1254A9B
:105A3000526D02F00702052A0ED8DFE802F003A635
:105A40000507090B0022ABE00822A9E01022A7E01D
:105A50002022A5E04022A3E08022A1E01E4A93423A
:105A60003CD1184A526D02F03802282A20D8DFE8CB
:105A700002F0151F1F1F1F1F1F1F8E1F1F1F1F1F1D
:105A80001F1F171F1F1F1F1F1F1F191F1F1F1F1F34
:105A90001F1F1B1F1F1F1F1F1F1F1D0001227FE035
:105AA00008227DE010227BE0202279E0402277E08E
:105AB000802275E0F369FFCF000C0058FFF4FF115E
:105AC00000100140004402580044004000480040DB
:105AD000004C00400050004000140140884A9342AE
:105AE00016D1884A526D02F00702052A0ED8DFE867
:105AF00002F003500507090B002251E008224FE095
